:107E0000112484B714BE81FFF4D085E080938100F3
:107E100082E08093C00088E18093C10086E0809377
:107E2000C20080E18093C4008EE0CDD0259A86E028
:107E300020E33CEF91E0309385002093840096BBD3
:107E4000B09BFECF1D9AA8958150A9F7CC24DD24C4
:107E50001AE1A12E88248394B5E07B2EA1E19A2E0D
:107E6000F3E0BF2EA4D0813461F4A1D0082FB1D0AB
:107E7000023811F0013811F484E001C083E08FD0A2
:107E80008BC0823411F484E103C0853419F485E099
:107E9000A8D082C0853579F48AD0E82EFF2487D017
:107EA000082F10E0102F00270E291F29000F111F87
:107EB00090D0680171C0863521F484E092D080E0D2
:107EC000DECF843609F041C072D071D0082F6FD058
:107ED00080E0C81680E7D80618F4F601B7BEE8952A
:107EE000C0E0D1E064D08A2589930C17D9F7F0E07F
:107EF000CF16F0E7DF0618F0F601B7BEE89569D0B7
:107F000007B600FCFDCFA601A0E0B1E02C9130E067
:107F100011968C91119790E0982F8827822B932BA4
:107F20001296FA010C0187BEE89511244E5F5F4F4F
:107F3000F1E0A038BF0751F7F60177BEE89507B624
:107F400000FCFDCF97BEE89527C08437B9F42FD049
:107F50002ED0F82E2CD03DD0F601EF2C8F010F5FE4
:107F60001F4F84918A251BD0EA94F801B9F7089431
:107F7000C11CD11CFA94CF0CD11C0EC0853739F42A
:107F800028D08EE10CD085E90AD08FE078CF8135FA
:107F900011F488E018D01DD080E101D063CF982F74
:107FA0008091C00085FFFCCF9093C600089580911A
:107FB000C00087FFFCCF8091C00084FD01C0A89560
:107FC0008091C6000895E0E6F0E098E19083808318
:107FD0000895EDDF803219F088E0F5DFFFCF84E10E
:107FE000DECF1F93182FE3DF1150E9F7F2DF1F9167
:0C7FF000089580E0E8DFEE27FF270994E9
:027FFE00040479
:0400000300007E007B
:00000001FF
